:020000040000FA
:06000000C6EF0EF0120035
:060008009CEF0DF0120058
:06002A000200A71D00000A
:10003000FC01000002000000A41D0000F901000006
:0400400003000000B9
:0C00440039EC04F0E6520101A16BDF6A08
:10005000020EDF5C07E2DF5048EC04F02D0EEF6E7D
:10006000DF2AF6D70101066B050E006F026F450E01
:10007000046FE40E8F6F150E906F800E616F636BCF
:100080006C6B6CC16EF16CC16DF1E55242EF04F026
:10009000F0DBACA2FED7FD0EDB50AD6EF3D3E9DB97
:1000A000FD0EDB38CCEC04F0FD0EDB50CCEC04F0A4
:1000B000E9D3DFDBFD0EDBCF01F001C000F096ECF1
:1000C00004F0FF0EE76EFC0EDBCF00F0E7500016E9
:1000D00096EC04F0D7D3E8CF97F1E0CF96F1D8CFE4
:1000E00093F1EACF99F1E9CF98F1F3CF94F1F4CFFE
:1000F00095F100C09AF101C09BF1120097C1E8FF91
:1001000096C1E0FF93C1D8FF99C1EAFF98C1E9FF0A
:1001100094C1F3FF95C1F4FF9AC100F09BC101F0B7
:100120001200F29EF29CD7DF01010651110DF3CFB0
:10013000A0F101EE65F0A0C1E8FFE926E86AEA2235
:1001400097C1EEFF96C1EEFF93C1EEFF94C1EEFFA3
:1001500095C1EEFF99C1EEFF98C1EEFFF850EE6E2B
:10016000F750EE6EF650EE6EE250EE6EE150EE6E2F
:10017000DA50EE6ED950EE6E9AC1EEFF9BC1EEFFE3
:10018000FA50EE6E01010651EA6A890FE96E010E1E
:10019000EA22EF50D880FC5409E201010651EA6AD4
:1001A000890FE96E010EEA22FCCFEFFFE250046EE8
:1001B000056A04C005F0046AE15000010424026EDF
:1001C000000E0520036E01010651EA6A630FE96E15
:1001D000010EEA22EF50086E096A08C009F0086AA9
:1001E00001010651EA6A610FE96E010EEA22EF5041
:1001F00000010824066E000E0920076E0650025CFE
:10020000006E07500358016E00C0A0F101010651B5
:10021000EA6A870FE96E010EEA22EF500101D880E9
:10022000A05509E201010651EA6A870FE96E010E45
:10023000EA22A0C1EFFF0101A151A12B640826E130
:100240000101A16B0101A06B020E0101A05D1EE284
:100250000101A051EA6A8D0FE96E010EEA22EF500A
:10026000E66E0101A051EA6A8B0FE96E010EEA22E7
:10027000E552E750EF6E0101A051EA6A8D0FE96E79
:10028000010EEA22EF6A0101A02BDED7010106511F
:10029000EA6A070FE96E010EEA22FCCFEFFF0101C7
:1002A0000651160DF3CF9CF1F4CF9DF1350E0101EF
:1002B0009C27010E01019D2301010651160DF3CF6C
:1002C0009EF1F4CF9FF1090E01019E27010E01015D
:1002D0009F23FC500AE101010651EA6A040FE96E0E
:1002E000010EEA222D0EEF6E1BD0FC5019E0FC042B
:1002F0000101A06F0101A0510101EA6A9C25E96E8C
:100300009D51EA22FECFEFFF0101A0510101EA6AEF
:100310009E25E96E9F51EA22FDCFEFFF0600E5D74B
:1003200052D8120050DB010EDB68DF6A020EDF5C80
:1003300024E24DDBEF5008E1DF5035DB440804E1F7
:10034000DF50A6DA450EEF6E42DBEFCF00F0010E74
:10035000DB50D88000540AE3DF5025DB450806E176
:10036000DFCF06F134DB010EEFCFDBFF30DBEF50E8
:1003700002E02DDBEF06DF2AD9D701010651EA6A38
:10038000000FE96E010EEA22EF50E66E065186DAA2
:10039000E552E750EF6E0651EA6A8D0FE96E010EE5
:1003A000EA22EF2A0651FFDA450805E01E0EE66E46
:1003B000A7EC0EF0E55201010651F5DA4408B5E06C
:1003C000E552E5525FD2AEDFFC6A01010651160D1F
:1003D000F3CF9CF1F4CF9DF1350E01019C27010E66
:1003E00001019D2301010651160DF3CF9EF1F4CFBB
:1003F0009FF1090E01019E27010E01019F230101BA
:100400000651EA6A070FE96E010EEA22EFCFA3F167
:100410000101A26B0101A3510101A25D1CE2FC2AB2
:10042000FC040101A06F0101A0510101EA6A9E25AF
:10043000E96E9F51EA22EF50FD6E0101A0510101CA
:10044000EA6A9C25E96E9D51EA22EF50FE6EFF6A32
:100450000101A22BDFD701010651110DF3CFA0F14D
:1004600001EE65F0A0C1E8FFE926E86AEA22EECFD6
:1004700097F1EECF96F1EECF93F1EECF94F1EECF70
:1004800095F1EECF99F1EECF98F1EE50F86EEE5077
:10049000F76EEE50F66EEE50E26EEE50E16EEE50FC
:1004A000DA6EEE50D96EEECF9AF1EECF9BF1EE50B0
:1004B000FA6EFB6A23DEF28EF28CC3D9120083DA65
:1004C000E652E652B60EE66E150EE66EECEC0CF059
:1004D000E552E552DF6A020EDF5C74E2DFCFE6FF31
:1004E0004CEC0DF0E552090E49DAEA6ADF3416DA0F
:1004F000EECFE6FFEFCFE6FFD4EC0CF0F1D9000F22
:10050000E96E010ED1D94FDA39DA01010651DF5C0B
:1005100002E12A0E33DA5EDAEA6A890FE96E010E29
:10052000C3D9160DF3CF02F0F4CF03F0350E022637
:10053000010E0322010EDB500F01E1D9016E006AAA
:10054000020E00C0DBFF030E01C0DBFFDF50160D03
:10055000F3CF02F0F4CF03F0090E0226010E0322BE
:10056000010EDB50CCD9E9D90050EE260150ED2226
:10057000020EDBCFE6FF030EDBCFE6FF54EC0DF0FF
:10058000AFD9870FE96E010E8FD9EA6A8B0FE96E3A
:10059000010E0CDAB50EE66E150EE66EECEC0CF004
:1005A000E552E552DF50EA6A890FE96E010EEA2250
:1005B000EF6ADF50EA6A870FE96E010EEA22EF6AFE
:1005C000DF2A89D7F29EF29CDF6A020EDF5C36E2F8
:1005D000300EDF247BD93A0E79D9DF50EA6A070F53
:1005E000E96E010EEA22EF28E66EA7D9E552E75040
:1005F000EE6EED6A010EDB6ADBCF00F0020EDBCFA0
:1006000001F0030EDBCF02F00150005C000E02543B
:100610000FE29AD9350E0026010E49D995D9090E57
:100620000026010E44D93B0E51D9010EDB2AE4D736
:100630000A0E4CD90D0E4AD9DF2AC7D7F28EF28C9A
:10064000F56E040EE15C02E2E16AE552E16EF550FE
:1006500019D1B9D9E652D950FC0F7DD9020EDB6A07
:10066000DBCFF4FFE850F45C08E2020EDB509BD9CC
:100670002D0803E0020EDB2AF3D7020E73D9FB0E1E
:10068000DBCFEFFF020EDB5009D9FB0EDBCFEFFF14
:10069000020EEA6ADB3442D9F70EDBCFEEFFF80E2A
:1006A000DBCFEDFF020EDB50EA6A070FE96E010EA9
:1006B000EA22010E2DD919D9090EE926010E63D9B6
:1006C00014D9350EE926010E89D9020EDB50E0D887
:1006D000450EEF6ED950F90F3ED9DECFE9FFDDCFE1
:1006E000EAFFEF50E66EB9D80B0E43D9B6D80D0E1F
:1006F000F2D8610FE96E010E46D9EF50E66EADD823
:100700000A0E37D9AAD80C0EE6D8630FE96E010E8F
:1007100065D9A3D8070E51D9090E4FD9080EE9267D
:10072000000EEA22EF6EE552E552E552ABD0A1D8B9
:1007300001010651ADD8440EEF6E0651AFD8FD0E43
:10074000DBCFEFFFF28EF28CECDCFC0EDBCFF3FFA5
:10075000DB06F350000905E0010106519FD8EF6860
:10076000F3D790D0D9CFE6FFDACFE6FFE1CFD9FFBC
:10077000E2CFDAFF01010651EA6A000FE96E010ECD
:10078000EA22FB0EDBCFEFFF01010651EA6A020FFE
:10079000E96E010EEA22FB0EDBCFEFFF0101D9501B
:1007A000FC0F9C6FFF0EDA209D6F010EFC6E9CC14A
:1007B000E9FF9DC1EAFFEF50FD6E010E0101EA6AFB
:1007C0009C25E96E9D51EA22EF50FE6EFF6A000EF5
:1007D000F86EF76EF66E01010651EA6A610FE96E76
:1007E000010EEA22EFCFA0F1A0C1E1FFA0C1D9FF25
:1007F00001010651EA6A630FE96E010EEA22EFCFAA
:10080000A0F1A0C1E2FFA0C1DAFF1200E552E5CFDE
:10081000DAFFE7CFD9FF12002CD8FD0EDB5038D815
:10082000FC0EDBCFEFFF2ED024D8FD0E9BD8FC0EA4
:10083000DBCFEFFFFD0EDB5031D8FC0EDBCFEFFF3F
:1008400021D0E8CFA4F1860ECF6EE70ECE6ECD801C
:100850009E909D80A4C1E8FF1200020EDB50110D96
:10086000F3CFE9FFF4CFEAFF650EE926010EEA2295
:100870001200D9CFE6FFDACFE6FFE1CFD9FFE2CF12
:10088000DAFF1200E552E5CFDAFFE7CFD9FF120019
:10089000EA6A040FE96E010EEA221200EA6A020F08
:1008A000E96E010EEA22120081D8EAEF04F001227B
:1008B000010EDB500F010024E96E000E0120EA6EEC
:1008C000EF50E66E4FEC00F0E5521200E66E48EC99
:1008D00000F0E55212004DD8020EDB50EA6A120019
:1008E000E552E55277D8EA6A1200EF50E66E020E42
:1008F000DB50160DF3CFE9FFF4CFEAFF120002241C
:10090000E96E000E0320EA6EEF50006E016A1200DD
:10091000EF6EDECFE9FFDDCFEAFF1200FE0BEA3615
:10092000E96E8F0EE926010EEA221200016A0050DC
:10093000E66E4FEC00F0E5521200D950020FE96E5E
:10094000000EDA20EA6E1200DF50160DF3CF00F031
:10095000F4CF01F01200006EFF0EDA2000C0DEFFBF
:10096000DD6E1200DB50EA6A000FE96E010EEA222A
:100970001200E926000E32D8E66E1200E66E33EC65
:100980000CF0E5521200EA22E552E750C1DF010EF9
:10099000E926000EEA2212000F0BE66E3FEC0DF086
:1009A000E55266EF04F074DFEF501200EA22EF50D8
:1009B000E66E4CEC0DF0E5521200E926000EEA223C
:1009C000EF6A2DEF04F055DFE652E6521200DF50D9
:1009D0004EEF04F0090ED2DFDF501200EA22E5529A
:0609E000E750EF6E12006B
:0A09E60043DA160EE12402E3E16893
:1009F000E652E16E1DEC0BF00101F96BDF6A200E8F
:100A0000DF5C04E243DAEF6ADF2AF9D7010EDF6E1A
:100A1000060EDF5C09E2EA6ADF34B1DAEE0EEE6E52
:100A2000010EED6EDF2AF4D70101CF0EA56F010E86
:100A3000A66FDF6A200EDF5C13E24FEC0CF062DA87
:100A4000DB500A0804E0010EDB500D0803E11EDA5A
:100A5000EF6A06D01BDA010EDBCFEFFFDF2AEAD701
:100A6000460EE66E140E0CDA0101CF51C7E0150EEA
:100A7000DB6ADF6A0BDAEF5020080FE107DAEF6A72
:100A8000150EDB2ADF28016ACF0F006E010E01224E
:100A9000E9D900C0EEFF01C0EDFFDF2AF7D9EF5022
:100AA000E9E1200EDF5CE6E0DF6AA7C1CDF1A8C175
:100AB000CEF1020EDB6A030EDB6A040EDB6A050E62
:100AC000DB6A150EDB501EDAF36E150EF3CFDBFF7B
:100AD000DBCF00F0010EDB50D880005419E357DA69
:100AE0003E0808E1BFD905DA040E00C0DBFF050EA1
:100AF00001C0DBFF4CDA3C0808E1B4D9FAD9020E98
:100B000000C0DBFF030E01C0DBFF150EDB2AE0D7C0
:100B1000DF6A080EDF5C2AE279D9CAD9060FE2D96A
:100B200002E2E16AE552E16EF550D950060F44DA6F
:100B3000A5C1E6FFA6C1E6FFF2D9000915E1D9502B
:100B4000040FF4D906E0010EDBCFE6FF2EEC0BF02C
:100B5000E552D950020FEAD909E0010EDBCFE6FFDA
:100B600039EC0BF0E55202D0DF2AD3D7080EDF5C58
:100B70000EE20101140EF96F0A0EE66E47D9020E5D
:100B800092D9B2EC03F0E552E552E55235D7CF0EDB
:100B9000E66E010EE66EBEEC0CF0E552E552440E38
:100BA000E66E140E6DD92AD75FEC02F0FAEF06F06C
:100BB000160EE66E140E64D9E60EE66E130E60D9BC
:100BC000B60EE66E130E5CD9820EE66E130E58D981
:100BD000530EE66E130E54D93D0EE66E130E50D929
:100BE000FAEF06F044D9A9D918E01BD914E0010A9C
:100BF0000FE0070A0AE0010A05E0030A0EE1DF50F0
:100C0000926E0BD0DF50936E08D0DF50946E05D0FB
:100C1000DF50956E02D0DF50966E9BD9650A10E0CA
:100C2000010A0CE0070A08E0010A04E0030A0AE1ED
:100C3000925007D0935005D0945003D0955001D0D6
:100C4000965082D98CD113D978D918E0EAD814E01B
:100C5000010A0FE0070A0AE0010A05E0030A0EE1B3
:100C6000DF50806E0BD0DF50816E08D0DF50826E77
:100C700005D0DF50836E02D0DF50846E6AD9650ADA
:100C800010E0010A0CE0070A08E0010A04E0030A88
:100C90000AE1805007D0815005D0825003D08350A4
:100CA00001D0845051D95BD1E2D8110EE12402E386
:100CB000E168E652E16EDF6A080EDF5C18E2A6D852
:100CC000F7D8020F0FD902E2E16AE552E16EF55062
:100CD000D950020F71D9CDC1E6FFCEC1E6FF1FD9B1
:100CE00011D9DB5002E143D985D8DF2AE5D7270E99
:100CF000E66E130EC5D8DF6A080EDF5C11E286D8F7
:100D00004DD9D4EC0CF0E552E552240EE66E130EEC
:100D1000E66ED4EC0CF0E552E55229D9DF2AECD787
:100D200069D8F56E110EE15C02E2E16AE552E16E0E
:100D3000F550B3D0200EE66E130EA2D8FAEF06F0EF
:100D400096D8E5D8DF6E05D92D0812E1DF500208EC
:100D50000FE3BDD8E66EDFCFE6FF0CEC04F0E55202
:100D6000E552DFCFE6FF4CEC0DF0B5D8B0D8ECD8AB
:100D7000CDC1E6FFCEC1E6FFCFEC0CF0E552ABD81B
:100D8000A7C1E6FFA8C1E6FFCFEC0CF0E552A3D85F
:100D900031D8E55282D06BD8E652B9D8B3D8D9D879
:100DA00025E0010EDB50020821E3D3D8D00FDF6E1F
:100DB0008ED808E00A0EDF02F3CFDFFF010EF5D870
:100DC000D00FDF26DFCFE6FF010EDBCFE6FF14EC0E
:100DD00004F0E552E552010EDBCFE6FF4CEC0DF0DE
:100DE0007AD8DFCFE6FF4CEC0DF0E55203D8E552A0
:100DF000E55253D00A0EE66EE60EE66E090EE66E7A
:100E0000B2EC03F0E552E552E5521200DF50060D58
:100E1000F3CFF6FFF4CFF7FF1E0EF6261D0EF722D6
:100E20001200010E0101EA6AA925E96EAA51EA221F
:100E3000EF50E66E24EC0DF0E552006EE66EA9C1AF
:100E4000E9FFAAC1EAFFEF50E66E24EC0DF0E5528F
:100E5000E552E7CF00F0100DF3500024DF6E79D893
:100E6000650A1200150EEA6ADB34BFEF07F0D9CF2E
:100E7000E6FFDACFE6FFE1CFD9FFE2CFDAFF1200DB
:100E8000E66EECEC0CF0E552E5521200DF50EA6A37
:100E9000CF0FE96E010EEA221200E552E5CFDAFF2C
:100EA000E7CFD9FF1200F626000EF722CEEF07F0AB
:100EB0000900F5CF00F00800F5CF01F0026A00C08C
:100EC000E6FF01C0E6FF02C0E6FFD9501200010EA6
:100ED0000101D5EF07F0E5522D0EE66E33EC0CF074
:100EE000E552120069D876EC0EF0F56E050EE15C65
:100EF0001200EECF00F0EFCF01F0010E0026000E41
:100F000001221200E76E010EE7CFDBFF1200E6526E
:100F1000A7C1E9FFA8C1EAFFEF50D00F120056ECBD
:100F20000EF0E552E552E552E5521200E96E000E70
:100F3000DA20EA6EEE50ED101200E652A9C1E9FF88
:100F4000AAC1EAFFEF501200E66E4CEC0DF0E5523C
:100F50001200CDC1E9FFCEC1EAFFEF5012000A0E28
:100F6000E66E33EC0CF0E55245DFE55296D74EDFE6
:100F7000040E99DFECEC0CF0E552E5521200FE0B8A
:100F8000EA36E96EA50EE926010EEA2212006ADFB2
:100F9000EE50EFCFEAFFE96EEF5012000900F5CFF7
:100FA000E6FF0800F5CFE6FF1200EA6ACD25E96EFC
:100FB000CE51EA22EF501200E66E000EDA20E66E05
:020FC00012001D
:0E0FC20078D9E652E652F80EDB50050808E03A
:100FD000F80EDB50040804E0030EF36EF80E7AD925
:100FE000F86AFB6AF80EDB50060DF3CFF6FFF4CF7C
:100FF000F7FF6E0EF6261D0EF7220900F5CF00F062
:101000000800F5CF01F0F90EDBCFE6FFFA0EDBCFDB
:10101000E6FFFB0EDBCFE6FFFC0EDBCFE6FFFD0EAF
:10102000DBCFE6FF04D001C0FAFF0050F96EFBDF12
:10103000F56E050EE15C02E2E16AE552E16EF55003
:10104000E552E55231D136D9F80EDB50050808E0FB
:10105000F80EDB50040804E0030EF36EF80E3AD9E4
:10106000F86AFB6AF80EDB50060DF3CFF6FFF4CFFB
:10107000F7FF6E0EF6261D0EF722020EF626000E64
:10108000F7220900F5CF00F00800F5CF01F0F90EC6
:10109000DBCFE6FFFA0EDBCFE6FFFB0EDBCFE6FF92
:1010A000FC0EDBCFE6FFFD0EDBCFE6FF04D001C078
:1010B000FAFF0050F96EFBDFF56E050EE15C02E20F
:1010C000E16AE552E16EF550EFD0F4D8F90EDB504D
:1010D000050804E0030EF36EF90EFCD8F86AFB6A0B
:1010E000F90EDB50060DF3CFF6FFF4CFF7FF6E0ECF
:1010F000F6261D0EF722040EF626000EF722090032
:10110000F5CF00F00800F5CF01F0FA0EDBCFE6FFD7
:10111000FB0EDBCFE6FFFC0EDBCFE6FFFD0EDBCFE9
:10112000E6FF04D001C0FAFF0050F96EFBDFE55284
:10113000E552E552E552E552E5CFDAFFE7CFD9FFB8
:101140001200DFD0DED0B6D8AE0E006E150E99D8E4
:1011500002E2E16AE552E0D8EE6A010EED6EA4D03B
:10116000D0D0CFD0A7D8A80E006E150E8AD802E234
:10117000E16AE552D1D8EE6A100EED6E95D0C1D07D
:10118000C0D098D8A0D8EE6AED6AA30E006E150EF6
:1011900078D802E2E16AE552E16EF55085D0B1D02F
:1011A000B0D088D890D8EE6A800EED6E9F0E006E9B
:1011B000150E67D802E2E16AE552E16EF55074D08F
:1011C000A5D82CC2DBFF020E2DC2DBFFDF6AF90EB1
:1011D000DB50DF5C17E2020EAC140AE18BD802018F
:1011E0002C51001805E12D51011802E17BD8F3D7ED
:1011F0006AD8EF50AD6EFC0EDB2AFD0E01E3DB2A50
:10120000DF2AE5D7E552E552E5524ED07FD82AC213
:10121000DBFF020E2BC2DBFFDF6AF90EDB50DF5C67
:101220001FE29E50200B0AE165D802012A510018E6
:1012300005E12B51011802E155D8F3D7060EAB1486
:1012400004E0AB98AB88DF0609D0DF50E76E3BD8EF
:10125000E750E926000EEA22AECFEFFFDF2ADDD706
:10126000E552E552E55220D025D8990E006E150EB4
:1012700008D802E2E16AE5524FD8010EEE6EED6A3F
:1012800013D0016E026A00C0E6FFE66E02C0E6FF00
:10129000FA0EDBCFE6FFFB0EDBCFE6FF76EC0EF0BF
:1012A000F56E050EE15C1200E552E5CFDAFFE7CFFF
:1012B000D9FF1200D9CFE6FFDACFE6FFE1CFD9FFA1
:1012C000E2CFDAFF1200FC0EDBCFE9FFFD0EDBCF31
:1012D000EAFF1200F3CFDBFF210EE66E48EC00F0D0
:1012E000E5521200E66A010EE66E97EC03F0E55255
:1012F000E5521200010EDBCF00F0020EDBCF01F051
:101300001200D9CFE6FFDACFE6FFCED7D3DFE65221
:10131000E652E652010E1200E16EF55063EF09F05D
:101320004F6B2E003A0900436F6D616E646F73203E
:10133000646973706F6E69626C65733A0068747487
:10134000703A2F2F7777772E756E702E6564752E15
:10135000617200466163756C746164206465204944
:101360006E67656E696572ED612C204470746F2E36
:101370002064652053697374656D61732028547708
:101380002900556E697665727369646164204E61E7
:1013900063696F6E616C206465206C6120506174BC
:1013A00061676F6E69612053616E204A75616E20BE
:1013B000426F73636F00436F70797269676874205E
:1013C000284329203230303320416C667265646FC7
:1013D00020412E204F7274656761202020202F202D
:1013E0005C5F5F2F20007069636978204F5320563F
:1013F00020312E30202020202020202020202020BE
:1014000020202020202020202020202020205C5F61
:101410002F286F5C2000202020202020202020204A
:1014200020202020202020202020202020202020BC
:1014300020202020202020202020202020202020AC
:10144000205F5F003F00003A2047756172646120B1
:101450006C6120636F6E6669677572616369F36EB4
:101460002061637475616C0073617665636F6E668D
:101470000058205B76616C5D205365746561207651
:10148000616C6F722064652070756572746F732073
:101490007472692D737461746500706F7274005892
:1014A000205B76616C5D20536574656120646972B0
:1014B000656363696F6E20492F4F206465207075E6
:1014C0006572746F73207472692D73746174650032
:1014D0007472697300203C70726F633E203C7072BE
:1014E000696F3E204D6F646966696361206C61209D
:1014F0007072696F726964616420646520756E2022
:1015000070726F6365736F0072656E69636500204A
:101510003C70726F633E203C73743E204D6F646973
:101520006669636120656C2065737461646F206413
:101530006520756E2070726F6365736F006B696CE8
:101540006C00496D7072696D65206C6F73207072EC
:101550006F6365736F7300707300496D7072696DAE
:1015600065206C612076657273696F6E00766572B6
:1015700000496D7072696D65206C612061797564D8
:1015800061006D616E001B6D1B5B306D1B5B324A31
:10159000007368656C6C2829007474795330006599
:1015A0007874004E756C6C00666C617368006565DC
:1015B00070726F6D000070726F63096E616D650906
:1015C0007072696F0973746174757309487374611B
:1015D000636B09616464720953737461636B0974AA
:0B15E000696D65006D61696E282900CF
:0415EC00B5D8E65236
:1015F000DF6A070EDF5C06E2E7D8EE50ED1002E08E
:10160000DF2AF7D7DF50E552B0D0A6D8FD0EDBCFEA
:1016100001F00138E830070BE850A7D09DD8E6521A
:10162000DF6A070EDF5C05E2CFD8EE6AED6ADF2ADB
:10163000F8D72AD802D8E55298D02AC20EF22BC287
:101640000FF22CC210F22DC211F22AC21CF22BC2D0
:101650001DF22CC21EF22DC21FF21200C6D8EECF10
:1016600010F2EDCF11F272D8EECF1EF2EDCF1FF2D5
:10167000BFD0BBD8EECF0EF2EDCF0FF267D8EECFD2
:101680001CF2EDCF1DF2B4D002012A6B800E2B6F3D
:101690002AC22CF22D6F1200A8D8EECF2AF2EDCF7D
:1016A0002BF2EECF2CF2EDCF2DF25FD09ED8EE5084
:1016B000ED1002E1010E0BD049D8EE6AED6A8ED82A
:1016C000000EE926020EEA22EE6AED6A000E4DD007
:1016D00043D8E652E652E652FD0EDB50070804E31B
:1016E00035D8EE50ED1002E1FE0E0FD060D80BE0C1
:1016F00042D8E1EC07F0F56E060EE15C02E2E16A29
:10170000E552E16EF550FA0EDB50E552E552E55236
:101710002CD022D8E652E652E65218D8EE50ED1000
:1017200002E1FE0E0FD043D80BE025D823EC08F0E1
:10173000F56E060EE15C02E2E16AE552E16EF550FB
:10174000FA0EDB50E552E552E5520FD047D80E0EA7
:10175000E926020EEA221200D9CFE6FFDACFE6FF31
:10176000E1CFD9FFE2CFDAFF1200E552E5CFDAFF91
:10177000E7CFD9FF1200DECF00F0DDCF01F0013856
:10178000016AE830070B006E020E00C0DBFFDBCF02
:10179000E6FFFA0EDBCFE6FFDECFE6FFDDCFE6FFAA
:1017A000FB0EDBCFE6FFFC0EDBCFE6FF120016D808
:1017B0001C0EE926020EEA22EECFDEFFEDCFDDFFA2
:1017C000010EDB50800B1200EA6ADF34FE0BEA36B2
:1017D000E96E0E0EE926020EEA221200FD0EEA6AFA
:1017E000DB34FE0BEA36E96E1200B6DFA6EF0BF033
:0C17F000FD0EDBCFE6FF5ADFE552B7D755
:0417FC00800EAF6E3E
:10180000200EAC6E900EAB6E9D9AAB8812009E506F
:10181000200B01E0010E12007ED8010EE66ED950B9
:10182000FC0FE66EFF0EDA20E66EFD0EDBCFE6FF64
:1018300089EC0BF0E552E552E552E55275D06BD8D4
:10184000E652010EE66ED9CFE6FFDACFE6FFFD0ED7
:10185000DBCFE6FF68EC0BF0E552E552E552E552CE
:10186000DF50E55261D057D8FD0EDBCFE6FFE66AC8
:10187000D3DFE552E55258D09EBA08D0E66A010E91
:10188000E66E97EC03F0E552E552F6D7060EAB1480
:1018900003E0AB98AB88200C9EBAAE5012003BD848
:1018A000E652EADFDF6EDF501F0804E2DFCFE6FF1B
:1018B000DADFE552DF50E55237D02DD8FB0EDBCF13
:1018C000F6FFFC0EDBCFF7FF0800F5500DE0FB0E36
:1018D000DBCFF6FFDB2AFC0EDBCFF7FF01E3DB2AD1
:1018E0000800F55027D8EAD71FD015D8FB0EDBCF5C
:1018F000E9FFFC0EDBCFEAFFEF500CE0FB0EDBCF85
:10190000E9FFDB2AFC0EDBCFEAFF01E3DB2AEF5025
:1019100011D8ECD709D0D9CFE6FFDACFE6FFE1CF77
:10192000D9FFE2CFDAFF1200E552E5CFDAFFE7CFC9
:10193000D9FF1200E66EFD0EDBCFE6FF6DDFE5524C
:04194000E55212005A
:0C19440050D8E652DF6A4FEC0CF0E66E63
:1019500059D8E552E750EF6E0A0802E0DF2AF5D7C2
:1019600051D8EF6AFC0EDBCF00F0FD0EDBCF01F0AB
:1019700000C0F3FF01C0F4FFE5523ED034D85DD87B
:10198000EF500CE0FC0EDBCFE9FFDB2AFD0EDBCFD6
:10199000EAFF01E3DB2AEF503DD8F1D72DD023D861
:1019A0003ED8ECDF43D828D01ED8FC0EDBCFF6FFA4
:1019B000FD0EDBCFF7FF0800F5500DE0FC0EDBCF8E
:1019C000F6FFDB2AFD0EDBCFF7FF01E3DB2A080081
:1019D000F55020D8EAD710D006D8E65220D8E4DF58
:1019E00025D8E55209D0D9CFE6FFDACFE6FFE1CF1F
:1019F000D9FFE2CFDAFF1200E552E5CFDAFFE7CFF9
:101A0000D9FF1200DF50E76E18D8E750E926000E24
:101A1000EA221200E66E33EC0CF0E5521200FC0EE6
:101A2000DBCFE6FFFD0EDBCFE6FF1200E552E5520D
:101A30000A0EF0DF0D0E0AEF0DF0FC0EDBCFE9FF12
:081A4000FD0EDBCFEAFF1200EE
:081A480052D8FD0EDB503908F5
:101A500004E3FD0EDB50D00F11D0FD0EDB50460825
:101A600002E3370E01D0570E006EFD0EDBCFE7FF0D
:101A70000050E75EFD0EE7CFDBFFDB5041D037D8EB
:101A8000FD0EDB50090804E3FD0EDB50300F03D0E0
:101A9000FD0EDB50370F34D02AD8FD0EDB3836D898
:101AA000FD0EDB5033D82CD022D8FD0EDBCF01F059
:101AB00001C000F034D8FF0EE76EFC0EDBCF00F063
:101AC000E75000162CD81CD030D8FC0EDB50A86E86
:101AD000A684550EA76EAA0EA76EA682A6B2FED742
:101AE000A198A6940DD021D8A680A85009D0D9CF0E
:101AF000E6FFDACFE6FFE1CFD9FFE2CFDAFF12004F
:101B0000E552E5CFDAFFE7CFD9FF12000F0BE66E03
:101B1000B6DFE552E66E33EC0CF0E5521200016AD6
:101B20000050E66EB9DFE5521200E1DFA69EA69CEA
:081B3000FD0EDB50A96E12004E
:081B38009EA004D09E90040061
:101B400091EC00F012009268936894689568060E14
:101B5000C16EFEEC0BF00EEC0BF022EF00F0D9CFD3
:101B6000E6FFDACFE6FFE1CFD9FFE2CFDAFFE652B8
:101B7000E652E652E652E652E6DF910EE66E150EAA
:101B8000E66E800EE66E000EE66E0A0EE66EB00E93
:101B9000E66E0B0EE66E29EC03F0F56E070EE15CC7
:101BA00002E2E16AE552E16EF550CD92CD98CD9A10
:101BB00021EC04F00101FB6BFBC1FAF1F28EF28C17
:101BC000010EDB6A020EDB6A030EDB6A040EDB6ABF
:101BD000D950010FE96E000EDA20EA6EEFCF00F067
:101BE000EE2A000EEFCF01F0EE22EFCF02F0EE2250
:101BF000EFCF03F0EF22A00E0018EAE1860E0118E5
:0E1C0000E7E1010E0218E4E10350E2E1D9D75A
:021C0E002A0E9C
:101C1000F66E000EF76E000EF86E01010900F55029
:101C2000F46F0900F550F56F03E1F46701D03DD082
:101C30000900F550EF6F0900F550F06F0900F550FD
:101C4000F16F09000900F550E96E0900F550EA6EE0
:101C5000090009000900F550F26F0900F550F36F13
:101C600009000900F6CFF6F1F7CFF7F1F8CFF8F158
:101C7000EFC1F6FFF0C1F7FFF1C1F8FF0101F25328
:101C800002E1F35307E00900F550EE6EF207F8E2C7
:101C9000F307F9D7F6C1F6FFF7C1F7FFF8C1F8FF70
:0C1CA0000101F407000EF55BBFD7120035
:041CAC00D9CFE6FFA7
:101CB000DACFE6FFFA0EE3CFD9FFFB0EE3CFDAFF70
:101CC000FC0EE3CFE9FFFD0EE3CFEAFFDE50EF5C51
:101CD00002E1EE66FBD7F36EFF0EE3CFDAFFE552CB
:101CE000FF0EE3CFD9FFE552F3501200FB0EE3CF16
:101CF000F6FFFC0EE3CFF7FFFD0EE3CFF8FFFE0E7D
:101D0000E3CFE9FFFF0EE3CFEAFFE9CFF3FFEACF2E
:0E1D1000F4FF0900F5CFEFFFEE66FBD71200DF
:021D1E0082152C
:101D2000A80C71156D15B00B5A155715A80B421557
:101D30003D15400D0F150815960DD514D014E40B64
:0E1D40009F149A14460C71146814340D471445
:021D4E00FF0E86
:101D5000E3500C6E480E01D04C0EE76EE72EFED716
:0E1D6000E76AE72EFED70C2EF7D70000120020
:021D6E00601102
:101D7000621164114411421146119E11A011A21169
:0C1D80007E11801182110C12C01168123B
:041D8C0015EE00F060
:101D900025EE00F0F86A0B9C07EC0EF0AFEC0DF0AE
:041DA000FDD7120059
:031DA4000000003C
:021DA70086159F
:020000040030CA
:0E000000FFFEFFFEFFFFFFFFFFFFFFFFFFFF02
:00000001FF
